*
62 65 67 69 6E
*
6F 3C
*
FF FE 00 00
*
53 5A 44 44 88 F0 27 33
*
CD 20 AA AA 02 00 00 00
*
FE FF
*
00 14 00 00 01 02
*
D4 C3 B2 A1
*
EF BB BF
*
7F 45 4C 46
*
62 70 6C 69 73 74
*
41 43 53 44
*
30 37 30 37 30
*
AC ED
*
05 00 00 00
*
04 00 00 00
*
4B 57 41 4A 88 F0 27 D1
*
53 5A 20 88 F0 27 33 D1
*
A1 B2 CD 34
*
37 E4 53 96 C9 DB D6 07
*
34 CD B2 A1
*
A1 B2 C3 D4
123
00 00 1A 00 05 10 04
386
4D 5A
3GP
00 00 00 20 66 74 79 70
3GP
00 00 00 14 66 74 79 70
3GP5
00 00 00 18 66 74 79 70
4XM
52 49 46 46
7Z
37 7A BC AF 27 1C
ABA
00 01 42 41
ABD
51 57 20 56 65 72 2E 20
ABI
41 4F 4C
ABI
41 4F 4C 49 4E 44 45 58
ABY
41 4F 4C
ABY
41 4F 4C 44 42
AC
72 69 66 66
ACCDB
00 01 00 00 53 74 61 6E 64 61 72 64 20 41 43 45 20 44 42
ACM
4D 5A
ACS
C3 AB CD AB
AC_
D0 CF 11 E0 A1 B1 1A E1
AD
52 45 56 4E 55 4D 3A 2C
ADF
44 4F 53
ADP
D0 CF 11 E0 A1 B1 1A E1
ADX
03 00 00 00 41 50 50 52
ADX
80 00 00 20 03 12 04
AIFF
46 4F 52 4D 00
AIN
21 12
AMR
23 21 41 4D 52
ANI
52 49 46 46
API
4D 5A 90 00 03 00 00 00
APR
D0 CF 11 E0 A1 B1 1A E1
ARC
1A 09
ARC
1A 08
ARC
41 72 43 01
ARC
1A 04
ARC
1A 03
ARC
1A 02
ARJ
60 EA
ARL
D4 2A
ASF
30 26 B2 75 8E 66 CF 11
AST
53 43 48 6C
ASX
3C
AU
2E 73 6E 64
AU
64 6E 73 2E
AUT
D4 2A
AVI
52 49 46 46
AW
8A 01 09 00 00 00 E1 08
AX
4D 5A
AX
4D 5A 90 00 03 00 00 00
BAG
41 4F 4C
BAG
41 4F 4C 20 46 65 65 64
BDR
58 54
BIN
42 4C 49 32 32 33 51
BMP
42 4D
BZ2
42 5A 68
CAB
49 53 63 28
CAB
4D 53 43 46
CAL
B5 A2 B0 B3 B3 B0 A5 B5
CAL
73 72 63 64 6F 63 69 64
CAL
53 75 70 65 72 43 61 6C
CAP
58 43 50 00
CAP
52 54 53 53
CAS
5F 43 41 53 45 5F
CAT
30
CBD
43 42 46 49 4C 45
CBK
5F 43 41 53 45 5F
CDA
52 49 46 46
CDR
45 4C 49 54 45 20 43 6F
CDR
52 49 46 46
CDR
4D 53 5F 56 4F 49 43 45
CFG
5B 66 6C 74 73 69 6D 2E
CHI
49 54 53 46
CHM
49 54 53 46
CLASS
CA FE BA BE
CLB
43 4F 4D 2B
CLB
43 4D 58 31
CMX
52 49 46 46
CNV
53 51 4C 4F 43 4F 4E 56
COD
4E 61 6D 65 3A 20
COM
E8
COM
4D 5A
COM
EB
COM
E9
CPE
46 41 58 43 4F 56 45 52
CPI
FF 46 4F 4E 54
CPI
53 49 45 54 52 4F 4E 49
CPL
DC DC
CPL
4D 5A
CPT
43 50 54 46 49 4C 45
CPT
43 50 54 37 46 49 4C 45
CPX
5B 57 69 6E 64 6F 77 73
CRU
43 52 55 53 48 20 76
CRW
49 49 1A 00 00 00 48 45
CSH
63 75 73 68 00 00 00 02
CTF
43 61 74 61 6C 6F 67 20
CTL
56 45 52 53 49 4F 4E 20
CUIX
50 4B 03 04
CUR
00 00 02 00
DAT
55 46 4F 4F 72 62 69 74
DAT
52 49 46 46
DAT
73 6C 68 21
DAT
49 6E 6E 6F 20 53 65 74
DAT
45 52 46 53 53 41 56 45
DAT
A9 0D 00 00 00 00 00 00
DAT
41 56 47 36 5F 49 6E 74
DAT
50 4E 43 49 55 4E 44 4F
DAT
03
DAT
55 46 4F 4F 72 62 69 74
DAT
52 49 46 46
DAT
43 6C 69 65 6E 74 20 55
DAT
50 45 53 54
DAT
4E 41 56 54 52 41 46 46
DAT
43 52 45 47
DAT
52 41 5A 41 54 44 42 31
DAT
72 65 67 66
DAT
1A 52 54 53 20 43 4F 4D
DB
D0 CF 11 E0 A1 B1 1A E1
DB
44 42 46 48
DB
FD FF FF FF
DB
00 06 15 61 00 00 00 02 00 00 04 D2 00 00 10 00
DB
08
DB
53 51 4C 69 74 65 20 66 6F 72 6D 61 74 20 33 00
DB3
03
DB4
04
DBA
00 01 42 44
DBB
6C 33 33 6C
DBF
4F 50 4C 44 61 74 61 62
DBX
CF AD 12 FE
DCI
3C 21 64 6F 63 74 79 70
DCX
B1 68 DE 3A
dex
64 65 78 0A 30 30 39 00
DIB
42 4D
DLL
4D 5A
DMG
78
DMP
50 41 47 45 44 55
DMP
4D 44 4D 50 93 A7
DMS
44 4D 53 21
DOC
0D 44 4F 43
DOC
CF 11 E0 A1 B1 1A E1 00
DOC
EC A5 C1 00
DOC
DB A5 2D 00
DOC
D0 CF 11 E0 A1 B1 1A E1
DOCX
50 4B 03 04
DOCX
50 4B 03 04 14 00 06 00
DOT
D0 CF 11 E0 A1 B1 1A E1
DRV
4D 5A
DRW
07
DRW
01 FF 02 04 03 02
DS4
52 49 46 46
DSN
4D 56
DSP
23 20 4D 69 63 72 6F 73
DSS
02 64 73 73
DSW
64 73 77 66 69 6C 65
DTD
07 64 74 32 64 64 74 64
DUN
5B 50 68 6F 6E 65 5D
DVF
4D 53 5F 56 4F 49 43 45
DVR
44 56 44
DW4
4F 7B
DWG
41 43 31 30
E01
45 56 46 09 0D 0A FF 00
E01
4C 56 46 09 0D 0A FF 00
ECF
5B 47 65 6E 65 72 61 6C
EFX
DC FE
EML
46 72 6F 6D
EML
52 65 74 75 72 6E 2D 50
EML
58 2D
ENL
40 40 40 20 00 00 40 40 40 40
EPS
C5 D0 D3 C6
EPS
25 21 50 53 2D 41 64 6F
ETH
1A 35 01 00
EVT
30 00 00 00 4C 66 4C 65
EVTX
45 6C 66 46 69 6C 65 00
EXE
4D 5A
FDF
25 50 44 46
FLAC
66 4C 61 43 00 00 00 22
FLI
00 11
FLT
76 32 30 30 33 2E 31 30
FLT
4D 5A 90 00 03 00 00 00
FLV
46 4C 56
FM
3C 4D 61 6B 65 72 46 69
FON
4D 5A
FTR
D2 0A 00 00
GHO
FE EF
GHS
FE EF
GID
4C 4E 02 00
GID
3F 5F 03 00
GIF
47 49 46 38
GPG
99
GRP
50 4D 43 43
GX2
47 58 32
GZ
1F 8B 08
HAP
91 33 48 46
HDMP
4D 44 4D 50 93 A7
HDR
49 53 63 28
HDR
23 3F 52 41 44 49 41 4E
hip
48 69 50 21
HLP
00 00 FF FF FF FF
HLP
4C 4E 02 00
HLP
3F 5F 03 00
HQX
28 54 68 69 73 20 66 69
ICO
00 00 01 00
IDX
41 4F 4C 44 42
IDX
50 00 00 00 20 00 00 00
IDX
41 4F 4C
IFO
44 56 44
IMG
EB 3C 90 2A
IMG
53 43 4D 49
IMG
50 49 43 54 00 08
IND
41 4F 4C 49 44 58
IND
41 4F 4C
INFO
E3 10 00 01 00 00 00 00
INFO
7A 62 65 78
INFO
54 68 69 73 20 69 73 20
ISO
43 44 30 30 31
IVR
2E 52 45 43
JAR
5F 27 A8 89
JAR
50 4B 03 04 14 00 08 00
JAR
50 4B 03 04
JAR
4A 41 52 43 53 00
JFIF
FF D8 FF E0
JFIF
FF D8 FF E0
JG
4A 47 04 0E
JG
4A 47 03 0E
JNT
4E 42 2A 00
JP2
00 00 00 0C 6A 50 20 20
JPE
FF D8 FF E0
JPE
FF D8 FF E0
JPEG
FF D8 FF E3
JPEG
FF D8 FF E2
JPEG
FF D8 FF E0
JPG
FF D8 FF E8
JPG
FF D8 FF E0
JPG
FF D8 FF E1
JTP
4E 42 2A 00
KGB
4B 47 42 5F 61 72 63 68
KOZ
49 44 33 03 00 00 00
KWD
50 4B 03 04
LBK
C8 00 79 00
LGC
7B 0D 0A 6F 20
LGD
7B 0D 0A 6F 20
LHA
2D 6C 68
LIB
21 3C 61 72 63 68 3E 0A
LIT
49 54 4F 4C 49 54 4C 53
LNK
4C 00 00 00 01 14 02 00
LOG
2A 2A 2A 20 20 49 6E 73
LWP
57 6F 72 64 50 72 6F
LZH
2D 6C 68
M4A
00 00 00 20 66 74 79 70 4D 34 41
MANIFEST
3C 3F 78 6D 6C 20 76 65 72 73 69 6F 6E 3D
MAR
4D 41 72 30 00
MAR
4D 41 52 43
MAR
4D 41 52 31 00
MDB
00 01 00 00 53 74 61 6E 64 61 72 64 20 4A 65 74 20 44 42
MDF
01 0F 00 00
MDI
45 50
MID
4D 54 68 64
MIDI
4D 54 68 64
MIF
56 65 72 73 69 6F 6E 20
MIF
3C 4D 61 6B 65 72 46 69
MKV
1A 45 DF A3 93 42 82 88
MLS
4D 56 32 43
MLS
4D 4C 53 57
MLS
4D 56 32 31 34
MLS
4D 49 4C 45 53
MMF
4D 4D 4D 44 00 00
MNY
00 01 00 00 4D 53 49 53 41 4D 20 44 61 74 61 62 61 73 65
MOF
FF FE 23 00 6C 00 69 00
MOV
77 69 64 65
MOV
6D 64 61 74
MOV
66 72 65 65
MOV
6D 6F 6F 76
MOV
73 6B 69 70
MOV
70 6E 6F 74
MP
0C ED
MP3
49 44 33
MPG
00 00 01 B3
MPG
00 00 01 BA
MSC
3C 3F 78 6D 6C 20 76 65 72 73 69 6F 6E 3D 22 31 2E 30 22 3F 3E 0D 0A 3C 4D 4D 43 5F 43 6F 6E 73 6F 6C 65 46 69 6C 65 20 43 6F 6E 73 6F 6C 65 56 65 72
MSC
D0 CF 11 E0 A1 B1 1A E1
MSI
23 20
MSI
23 20
MSV
4D 53 5F 56 4F 49 43 45
MTW
D0 CF 11 E0 A1 B1 1A E1
NRI
0E 4E 65 72 6F 49 53 4F
NSF
1A 00 00 04 00 00
NSF
4E 45 53 4D 1A 01
NTF
30 31 4F 52 44 4E 41 4E
NTF
4E 49 54 46 30
NTF
1A 00 00
NVRAM
4D 52 56 4E
OBJ
80
OBJ
4C 01
OCX
4D 5A
ODP
50 4B 03 04
ODT
50 4B 03 04
OGA
4F 67 67 53 00 02 00 00
OGG
4F 67 67 53 00 02 00 00
OGV
4F 67 67 53 00 02 00 00
OGX
4F 67 67 53 00 02 00 00
OLB
4D 5A
ONE
E4 52 5C 7B 8C D8 A7 4D
OPT
FD FF FF FF 20
OPT
D0 CF 11 E0 A1 B1 1A E1
ORG
41 4F 4C 56 4D 31 30 30
OTT
50 4B 03 04
P10
64 00 00 00
PAK
50 41 43 4B
PAK
1A 0B
PAT
47 50 41 54
PAX
50 41 58
PCH
56 43 50 43 48 30
PCX
0A 03 01 01
PCX
0A 02 01 01
PCX
0A 05 01 01
PDB
4D 2D 57 20 50 6F 63 6B
PDB
AC ED 00 05 73 72 00 12
PDB
73 7A 65 7A
PDB
73 6D 5F
PDB
4D 69 63 72 6F 73 6F 66 74 20 43 2F 43 2B 2B 20
PDF
25 50 44 46
PF
11 00 00 00 53 43 43 41
PFC
41 4F 4C 56 4D 31 30 30
PFC
41 4F 4C
PGD
50 47 50 64 4D 41 49 4E
PGM
50 35 0A
PIF
4D 5A
PKR
99 01
PNG
89 50 4E 47 0D 0A 1A 0A
PPS
D0 CF 11 E0 A1 B1 1A E1
PPT
A0 46 1D F0
PPT
0F 00 E8 03
PPT
00 6E 1E F0
PPT
FD FF FF FF 43 00 00 00
PPT
FD FF FF FF 1C 00 00 00
PPT
D0 CF 11 E0 A1 B1 1A E1
PPT
FD FF FF FF 0E 00 00 00
PPTX
50 4B 03 04 14 00 06 00
PPTX
50 4B 03 04
PPZ
4D 53 43 46
PRC
74 42 4D 50 4B 6E 57 72
PRC
42 4F 4F 4B 4D 4F 42 49
PSD
38 42 50 53
PSP
7E 42 4B 00
PUB
D0 CF 11 E0 A1 B1 1A E1
PWI
7B 5C 70 77 69
PWL
E3 82 85 96
PWL
B0 4D 46 43
QBB
45 86 00 00 06 00
QCP
52 49 46 46
QDF
AC 9E BD 8F 00 00
QEL
51 45 4C 20
QEMU
51 46 49
QPH
03 00 00 00
QSD
51 57 20 56 65 72 2E 20
QTS
4D 5A
QTX
4D 5A
QXD
00 00 4D 4D 58 50 52
QXD
00 00 49 49 58 50 52
RA
2E 72 61 FD 00
RA
2E 52 4D 46 00 00 00 12
RAM
72 74 73 70 3A 2F 2F
RAR
52 61 72 21 1A 07 00
REG
FF FE
REG
52 45 47 45 44 49 54
RGB
01 DA 01 01 00 03
RM
2E 52 4D 46
RMI
52 49 46 46
RMVB
2E 52 4D 46
RPM
ED AB EE DB
RTD
43 23 2B 44 A4 43 4D A5
RTF
7B 5C 72 74 66 31
RVT
D0 CF 11 E0 A1 B1 1A E1
SAM
5B 76 65 72 5D
SAM
5B 56 45 52 5D
SAV
24 46 4C 32 40 28 23 29
SCR
4D 5A
SDR
53 4D 41 52 54 44 52 57
SH3
48 48 47 42 31
SHD
67 49 00 00
SHD
4B 49 00 00
SHD
66 49 00 00
SHD
68 49 00 00
SHW
53 48 4F 57
SIT
53 74 75 66 66 49 74 20
SIT
53 49 54 21 00
SKF
07 53 4B 46
SKR
95 01
SKR
95 00
SLE
3A 56 45 52 53 49 4F 4E
SLE
41 43 76
SLN
4D 69 63 72 6F 73 6F 66 74 20 56 69 73 75 61 6C
SNM
00 1E 84 90 00 00 00 00
SNP
4D 53 43 46
SOU
D0 CF 11 E0 A1 B1 1A E1
SPL
00 00 01 00
SPO
D0 CF 11 E0 A1 B1 1A E1
SUD
52 45 47 45 44 49 54
SUO
FD FF FF FF 04
SWF
46 57 53
SWF
43 57 53
SXC
50 4B 03 04
SXD
50 4B 03 04
SXI
50 4B 03 04
SXW
50 4B 03 04
SYS
FF
SYS
EB
SYS
E9
SYS
E8
SYS
FF 4B 45 59 42 20 20 20
SYS
4D 5A
SYS
FF FF FF FF
SYW
41 4D 59 4F
TAR
75 73 74 61 72
TAR.BZ2
42 5A 68
TAR.Z
1F A0
TAR.Z
1F 9D 90
TB2
42 5A 68
TBZ2
42 5A 68
TIB
B4 6E 68 44
TIF
4D 4D 00 2A
TIF
49 49 2A 00
TIF
49 20 49
TIF
4D 4D 00 2B
TIFF
4D 4D 00 2A
TIFF
49 49 2A 00
TIFF
49 20 49
TIFF
4D 4D 00 2B
TLB
4D 53 46 54 02 00 01 00
TR1
01 10
UCE
55 43 45 58
UFA
55 46 41 C6 D2 C1
VBX
4D 5A
VCD
45 4E 54 52 59 56 43 44
VCF
42 45 47 49 4E 3A 56 43
VCW
5B 4D 53 56 43
VHD
63 6F 6E 65 63 74 69 78
VMDK
23 20 44 69 73 6B 20 44
VMDK
43 4F 57 44
VMDK
4B 44 4D
VOB
00 00 01 BA
VSD
D0 CF 11 E0 A1 B1 1A E1
VXD
4D 5A
WAB
81 32 84 C1 85 05 D0 11
WAB
9C CB CB 8D 13 75 D2 11
WAV
52 49 46 46
WB2
00 00 02 00
WB3
3E 00 03 00 FE FF 09 00 06
WIZ
D0 CF 11 E0 A1 B1 1A E1
WK1
00 00 02 00 06 04 06 00
WK3
00 00 1A 00 00 10 04 00
WK4
00 00 1A 00 02 10 04 00
WK5
00 00 1A 00 02 10 04 00
WKS
0E 57 4B 53
WKS
FF 00 02 00 04 04 05 54
WMA
30 26 B2 75 8E 66 CF 11
WMF
D7 CD C6 9A
WMV
30 26 B2 75 8E 66 CF 11
WMZ
50 4B 03 04
WP
FF 57 50 43
WP5
FF 57 50 43
WP6
FF 57 50 43
WPD
FF 57 50 43
WPF
81 CD AB
WPG
FF 57 50 43
WPL
4D 69 63 72 6F 73 6F 66 74 20 57 69 6E 64 6F 77 73 20 4D 65 64 69 61 20 50 6C 61 79 65 72 20 2D 2D 20
WPP
FF 57 50 43
WPS
D0 CF 11 E0 A1 B1 1A E1
WRI
BE 00 00 00 AB
WRI
32 BE
WRI
31 BE
WS
1D 7D
WS2
57 53 32 30 30 30
XDR
3C
XLA
D0 CF 11 E0 A1 B1 1A E1
XLS
FD FF FF FF 29
XLS
FD FF FF FF 28
XLS
FD FF FF FF 23
XLS
D0 CF 11 E0 A1 B1 1A E1
XLS
FD FF FF FF 22
XLS
FD FF FF FF 1F
XLS
FD FF FF FF 10
XLS
09 08 10 00 00 06 05 00
XLSX
50 4B 03 04 14 00 06 00
XLSX
50 4B 03 04
XML
3C 3F 78 6D 6C 20 76 65 72 73 69 6F 6E 3D 22 31 2E 30 22 3F 3E
XPI
50 4B 03 04
XPS
50 4B 03 04
XPT
58 50 43 4F 4D 0A 54 79
XPT
50 4B 03 04
ZAP
4D 5A 90 00 03 00 00 00 04 00 00 00 FF FF
ZIP
50 4B 03 04 14 00 01 00
ZIP
50 4B 07 08
ZIP
50 4B 05 06
ZIP
50 4B 03 04
ZIP
50 4B 53 70 58
ZIP
50 4B 4C 49 54 45
ZIP
57 69 6E 5A 69 70
ZOO
5A 4F 4F 20
